{
  "_format": "hh-sol-artifact-1",
  "contractName": "Vault",
  "sourceName": "contracts/Vault.sol",
  "abi": [
    {
      "inputs": [
        {
          "internalType": "address",
          "name": "initOwner",
          "type": "address"
        }
      ],
      "stateMutability": "nonpayable",
      "type": "constructor"
    },
    {
      "inputs": [],
      "name": "AccessControlBadConfirmation",
      "type": "error"
    },
    {
      "inputs": [
        {
          "internalType": "address",
          "name": "account",
          "type": "address"
        },
        {
          "internalType": "bytes32",
          "name": "neededRole",
          "type": "bytes32"
        }
      ],
      "name": "AccessControlUnauthorizedAccount",
      "type": "error"
    },
    {
      "inputs": [
        {
          "internalType": "address",
          "name": "target",
          "type": "address"
        }
      ],
      "name": "AddressEmptyCode",
      "type": "error"
    },
    {
      "inputs": [
        {
          "internalType": "address",
          "name": "account",
          "type": "address"
        }
      ],
      "name": "AddressInsufficientBalance",
      "type": "error"
    },
    {
      "inputs": [],
      "name": "FailedInnerCall",
      "type": "error"
    },
    {
      "inputs": [
        {
          "internalType": "address",
          "name": "owner",
          "type": "address"
        }
      ],
      "name": "OwnableInvalidOwner",
      "type": "error"
    },
    {
      "inputs": [
        {
          "internalType": "address",
          "name": "account",
          "type": "address"
        }
      ],
      "name": "OwnableUnauthorizedAccount",
      "type": "error"
    },
    {
      "inputs": [
        {
          "internalType": "address",
          "name": "token",
          "type": "address"
        }
      ],
      "name": "SafeERC20FailedOperation",
      "type": "error"
    },
    {
      "anonymous": false,
      "inputs": [
        {
          "indexed": true,
          "internalType": "address",
          "name": "previousOwner",
          "type": "address"
        },
        {
          "indexed": true,
          "internalType": "address",
          "name": "newOwner",
          "type": "address"
        }
      ],
      "name": "OwnershipTransferred",
      "type": "event"
    },
    {
      "anonymous": false,
      "inputs": [
        {
          "indexed": true,
          "internalType": "bytes32",
          "name": "role",
          "type": "bytes32"
        },
        {
          "indexed": true,
          "internalType": "bytes32",
          "name": "previousAdminRole",
          "type": "bytes32"
        },
        {
          "indexed": true,
          "internalType": "bytes32",
          "name": "newAdminRole",
          "type": "bytes32"
        }
      ],
      "name": "RoleAdminChanged",
      "type": "event"
    },
    {
      "anonymous": false,
      "inputs": [
        {
          "indexed": true,
          "internalType": "bytes32",
          "name": "role",
          "type": "bytes32"
        },
        {
          "indexed": true,
          "internalType": "address",
          "name": "account",
          "type": "address"
        },
        {
          "indexed": true,
          "internalType": "address",
          "name": "sender",
          "type": "address"
        }
      ],
      "name": "RoleGranted",
      "type": "event"
    },
    {
      "anonymous": false,
      "inputs": [
        {
          "indexed": true,
          "internalType": "bytes32",
          "name": "role",
          "type": "bytes32"
        },
        {
          "indexed": true,
          "internalType": "address",
          "name": "account",
          "type": "address"
        },
        {
          "indexed": true,
          "internalType": "address",
          "name": "sender",
          "type": "address"
        }
      ],
      "name": "RoleRevoked",
      "type": "event"
    },
    {
      "inputs": [],
      "name": "DEFAULT_ADMIN_ROLE",
      "outputs": [
        {
          "internalType": "bytes32",
          "name": "",
          "type": "bytes32"
        }
      ],
      "stateMutability": "view",
      "type": "function"
    },
    {
      "inputs": [],
      "name": "WITHDRAWER_ROLE",
      "outputs": [
        {
          "internalType": "bytes32",
          "name": "",
          "type": "bytes32"
        }
      ],
      "stateMutability": "view",
      "type": "function"
    },
    {
      "inputs": [
        {
          "internalType": "uint256",
          "name": "_amout",
          "type": "uint256"
        }
      ],
      "name": "deposit",
      "outputs": [],
      "stateMutability": "nonpayable",
      "type": "function"
    },
    {
      "inputs": [
        {
          "internalType": "bytes32",
          "name": "role",
          "type": "bytes32"
        }
      ],
      "name": "getRoleAdmin",
      "outputs": [
        {
          "internalType": "bytes32",
          "name": "",
          "type": "bytes32"
        }
      ],
      "stateMutability": "view",
      "type": "function"
    },
    {
      "inputs": [
        {
          "internalType": "bytes32",
          "name": "role",
          "type": "bytes32"
        },
        {
          "internalType": "uint256",
          "name": "index",
          "type": "uint256"
        }
      ],
      "name": "getRoleMember",
      "outputs": [
        {
          "internalType": "address",
          "name": "",
          "type": "address"
        }
      ],
      "stateMutability": "view",
      "type": "function"
    },
    {
      "inputs": [
        {
          "internalType": "bytes32",
          "name": "role",
          "type": "bytes32"
        }
      ],
      "name": "getRoleMemberCount",
      "outputs": [
        {
          "internalType": "uint256",
          "name": "",
          "type": "uint256"
        }
      ],
      "stateMutability": "view",
      "type": "function"
    },
    {
      "inputs": [
        {
          "internalType": "bytes32",
          "name": "role",
          "type": "bytes32"
        },
        {
          "internalType": "address",
          "name": "account",
          "type": "address"
        }
      ],
      "name": "grantRole",
      "outputs": [],
      "stateMutability": "nonpayable",
      "type": "function"
    },
    {
      "inputs": [
        {
          "internalType": "bytes32",
          "name": "role",
          "type": "bytes32"
        },
        {
          "internalType": "address",
          "name": "account",
          "type": "address"
        }
      ],
      "name": "hasRole",
      "outputs": [
        {
          "internalType": "bool",
          "name": "",
          "type": "bool"
        }
      ],
      "stateMutability": "view",
      "type": "function"
    },
    {
      "inputs": [],
      "name": "maxWithdrawAmount",
      "outputs": [
        {
          "internalType": "uint256",
          "name": "",
          "type": "uint256"
        }
      ],
      "stateMutability": "view",
      "type": "function"
    },
    {
      "inputs": [],
      "name": "owner",
      "outputs": [
        {
          "internalType": "address",
          "name": "",
          "type": "address"
        }
      ],
      "stateMutability": "view",
      "type": "function"
    },
    {
      "inputs": [],
      "name": "renounceOwnership",
      "outputs": [],
      "stateMutability": "nonpayable",
      "type": "function"
    },
    {
      "inputs": [
        {
          "internalType": "bytes32",
          "name": "role",
          "type": "bytes32"
        },
        {
          "internalType": "address",
          "name": "callerConfirmation",
          "type": "address"
        }
      ],
      "name": "renounceRole",
      "outputs": [],
      "stateMutability": "nonpayable",
      "type": "function"
    },
    {
      "inputs": [
        {
          "internalType": "bytes32",
          "name": "role",
          "type": "bytes32"
        },
        {
          "internalType": "address",
          "name": "account",
          "type": "address"
        }
      ],
      "name": "revokeRole",
      "outputs": [],
      "stateMutability": "nonpayable",
      "type": "function"
    },
    {
      "inputs": [
        {
          "internalType": "uint256",
          "name": "_maxAmount",
          "type": "uint256"
        }
      ],
      "name": "setMaxWithdrawAmount",
      "outputs": [],
      "stateMutability": "nonpayable",
      "type": "function"
    },
    {
      "inputs": [
        {
          "internalType": "contract IERC20",
          "name": "_token",
          "type": "address"
        }
      ],
      "name": "setToken",
      "outputs": [],
      "stateMutability": "nonpayable",
      "type": "function"
    },
    {
      "inputs": [
        {
          "internalType": "bool",
          "name": "_isEnable",
          "type": "bool"
        }
      ],
      "name": "setWithdrawEnable",
      "outputs": [],
      "stateMutability": "nonpayable",
      "type": "function"
    },
    {
      "inputs": [
        {
          "internalType": "bytes4",
          "name": "interfaceId",
          "type": "bytes4"
        }
      ],
      "name": "supportsInterface",
      "outputs": [
        {
          "internalType": "bool",
          "name": "",
          "type": "bool"
        }
      ],
      "stateMutability": "view",
      "type": "function"
    },
    {
      "inputs": [
        {
          "internalType": "address",
          "name": "newOwner",
          "type": "address"
        }
      ],
      "name": "transferOwnership",
      "outputs": [],
      "stateMutability": "nonpayable",
      "type": "function"
    },
    {
      "inputs": [
        {
          "internalType": "address",
          "name": "_to",
          "type": "address"
        },
        {
          "internalType": "uint256",
          "name": "_amount",
          "type": "uint256"
        }
      ],
      "name": "withdraw",
      "outputs": [],
      "stateMutability": "nonpayable",
      "type": "function"
    },
    {
      "inputs": [],
      "name": "withdrawEnable",
      "outputs": [
        {
          "internalType": "bool",
          "name": "",
          "type": "bool"
        }
      ],
      "stateMutability": "view",
      "type": "function"
    }
  ],
  "bytecode": "0x60806040523480156200001157600080fd5b5060405162001f3538038062001f358339818101604052810190620000379190620004b5565b80600073ffffffffffffffffffffffffffffffffffffffff168173ffffffffffffffffffffffffffffffffffffffff1603620000ad5760006040517f1e4fbdf7000000000000000000000000000000000000000000000000000000008152600401620000a49190620004f8565b60405180910390fd5b620000be81620000eb60201b60201c565b50620000e36000801b620000d7620001af60201b60201c565b620001b760201b60201c565b505062000515565b60008060009054906101000a900473ffffffffffffffffffffffffffffffffffffffff169050816000806101000a81548173ffffffffffffffffffffffffffffffffffffffff021916908373ffffffffffffffffffffffffffffffffffffffff1602179055508173ffffffffffffffffffffffffffffffffffffffff168173ffffffffffffffffffffffffffffffffffffffff167f8be0079c531659141344cd1fd0a4f28419497f9722a3daafe3b4186f6b6457e060405160405180910390a35050565b600033905090565b600080620001cc84846200020860201b60201c565b90508015620001fe57620001fc83600260008781526020019081526020016000206200030b60201b90919060201c565b505b8091505092915050565b60006200021c83836200034360201b60201c565b6200030057600180600085815260200190815260200160002060000160008473ffffffffffffffffffffffffffffffffffffffff1673ffffffffffffffffffffffffffffffffffffffff16815260200190815260200160002060006101000a81548160ff0219169083151502179055506200029c620001af60201b60201c565b73ffffffffffffffffffffffffffffffffffffffff168273ffffffffffffffffffffffffffffffffffffffff16847f2f8788117e7eff1d82e926ec794901d17c78024a50270940304540a733656f0d60405160405180910390a46001905062000305565b600090505b92915050565b60006200033b836000018373ffffffffffffffffffffffffffffffffffffffff1660001b620003ae60201b60201c565b905092915050565b60006001600084815260200190815260200160002060000160008373ffffffffffffffffffffffffffffffffffffffff1673ffffffffffffffffffffffffffffffffffffffff16815260200190815260200160002060009054906101000a900460ff16905092915050565b6000620003c283836200042860201b60201c565b6200041d57826000018290806001815401808255809150506001900390600052602060002001600090919091909150558260000180549050836001016000848152602001908152602001600020819055506001905062000422565b600090505b92915050565b600080836001016000848152602001908152602001600020541415905092915050565b600080fd5b600073ffffffffffffffffffffffffffffffffffffffff82169050919050565b60006200047d8262000450565b9050919050565b6200048f8162000470565b81146200049b57600080fd5b50565b600081519050620004af8162000484565b92915050565b600060208284031215620004ce57620004cd6200044b565b5b6000620004de848285016200049e565b91505092915050565b620004f28162000470565b82525050565b60006020820190506200050f6000830184620004e7565b92915050565b611a1080620005256000396000f3fe608060405234801561001057600080fd5b506004361061012c5760003560e01c806391d14854116100ad578063d547741f11610071578063d547741f1461032f578063df74e0281461034b578063f2fde38b14610367578063f3fef3a314610383578063f516440c1461039f5761012c565b806391d1485414610277578063a217fddf146102a7578063b5b68afe146102c5578063b6b55f25146102e3578063ca15c873146102ff5761012c565b8063715018a6116100f4578063715018a6146101e5578063827a560b146101ef57806385f438c11461020b5780638da5cb5b146102295780639010d07c146102475761012c565b806301ffc9a714610131578063144fa6d714610161578063248a9ca31461017d5780632f2ff15d146101ad57806336568abe146101c9575b600080fd5b61014b60048036038101906101469190611393565b6103bd565b60405161015891906113db565b60405180910390f35b61017b60048036038101906101769190611466565b610437565b005b610197600480360381019061019291906114c9565b610483565b6040516101a49190611505565b60405180910390f35b6101c760048036038101906101c2919061154c565b6104a3565b005b6101e360048036038101906101de919061154c565b6104c5565b005b6101ed610540565b005b610209600480360381019061020491906115b8565b610554565b005b610213610579565b6040516102209190611505565b60405180910390f35b61023161059d565b60405161023e91906115f4565b60405180910390f35b610261600480360381019061025c9190611645565b6105c6565b60405161026e91906115f4565b60405180910390f35b610291600480360381019061028c919061154c565b6105f5565b60405161029e91906113db565b60405180910390f35b6102af610660565b6040516102bc9190611505565b60405180910390f35b6102cd610667565b6040516102da91906113db565b60405180910390f35b6102fd60048036038101906102f89190611685565b61067a565b005b610319600480360381019061031491906114c9565b6106ab565b60405161032691906116c1565b60405180910390f35b6103496004803603810190610344919061154c565b6106cf565b005b61036560048036038101906103609190611685565b6106f1565b005b610381600480360381019061037c91906116dc565b610703565b005b61039d60048036038101906103989190611709565b610789565b005b6103a76108e2565b6040516103b491906116c1565b60405180910390f35b60007f5a05180f000000000000000000000000000000000000000000000000000000007bffffffffffffffffffffffffffffffffffffffffffffffffffffffff1916827bffffffffffffffffffffffffffffffffffffffffffffffffffffffff19161480610430575061042f826108e8565b5b9050919050565b61043f610962565b80600360006101000a81548173ffffffffffffffffffffffffffffffffffffffff021916908373ffffffffffffffffffffffffffffffffffffffff16021790555050565b600060016000838152602001908152602001600020600101549050919050565b6104ac82610483565b6104b5816109e9565b6104bf83836109fd565b50505050565b6104cd610a43565b73ffffffffffffffffffffffffffffffffffffffff168173ffffffffffffffffffffffffffffffffffffffff1614610531576040517f6697b23200000000000000000000000000000000000000000000000000000000815260040160405180910390fd5b61053b8282610a4b565b505050565b610548610962565b6105526000610a91565b565b61055c610962565b80600560006101000a81548160ff02191690831515021790555050565b7f10dac8c06a04bec0b551627dad28bc00d6516b0caacd1c7b345fcdb5211334e481565b60008060009054906101000a900473ffffffffffffffffffffffffffffffffffffffff16905090565b60006105ed8260026000868152602001908152602001600020610b5590919063ffffffff16565b905092915050565b60006001600084815260200190815260200160002060000160008373ffffffffffffffffffffffffffffffffffffffff1673ffffffffffffffffffffffffffffffffffffffff16815260200190815260200160002060009054906101000a900460ff16905092915050565b6000801b81565b600560009054906101000a900460ff1681565b6106a8600360009054906101000a900473ffffffffffffffffffffffffffffffffffffffff16333084610b6f565b50565b60006106c860026000848152602001908152602001600020610bf1565b9050919050565b6106d882610483565b6106e1816109e9565b6106eb8383610a4b565b50505050565b6106f9610962565b8060048190555050565b61070b610962565b600073ffffffffffffffffffffffffffffffffffffffff168173ffffffffffffffffffffffffffffffffffffffff160361077d5760006040517f1e4fbdf700000000000000000000000000000000000000000000000000000000815260040161077491906115f4565b60405180910390fd5b61078681610a91565b50565b610791610a43565b73ffffffffffffffffffffffffffffffffffffffff166107af61059d565b73ffffffffffffffffffffffffffffffffffffffff1614806107fe57506107fd7f574954484452415745525f524f4c4500000000000000000000000000000000006107f8610a43565b6105f5565b5b61083d576040517f08c379a0000000000000000000000000000000000000000000000000000000008152600401610834906117a6565b60405180910390fd5b600360009054906101000a900473ffffffffffffffffffffffffffffffffffffffff1673ffffffffffffffffffffffffffffffffffffffff1663a9059cbb83836040518363ffffffff1660e01b815260040161089a9291906117c6565b6020604051808303816000875af11580156108b9573d6000803e3d6000fd5b505050506040513d601f19601f820116820180604052508101906108dd9190611804565b505050565b60045481565b60007f7965db0b000000000000000000000000000000000000000000000000000000007bffffffffffffffffffffffffffffffffffffffffffffffffffffffff1916827bffffffffffffffffffffffffffffffffffffffffffffffffffffffff1916148061095b575061095a82610c06565b5b9050919050565b61096a610a43565b73ffffffffffffffffffffffffffffffffffffffff1661098861059d565b73ffffffffffffffffffffffffffffffffffffffff16146109e7576109ab610a43565b6040517f118cdaa70000000000000000000000000000000000000000000000000000000081526004016109de91906115f4565b60405180910390fd5b565b6109fa816109f5610a43565b610c70565b50565b600080610a0a8484610cc1565b90508015610a3957610a378360026000878152602001908152602001600020610db290919063ffffffff16565b505b8091505092915050565b600033905090565b600080610a588484610de2565b90508015610a8757610a858360026000878152602001908152602001600020610ed590919063ffffffff16565b505b8091505092915050565b60008060009054906101000a900473ffffffffffffffffffffffffffffffffffffffff169050816000806101000a81548173ffffffffffffffffffffffffffffffffffffffff021916908373ffffffffffffffffffffffffffffffffffffffff1602179055508173ffffffffffffffffffffffffffffffffffffffff168173ffffffffffffffffffffffffffffffffffffffff167f8be0079c531659141344cd1fd0a4f28419497f9722a3daafe3b4186f6b6457e060405160405180910390a35050565b6000610b648360000183610f05565b60001c905092915050565b610beb848573ffffffffffffffffffffffffffffffffffffffff166323b872dd868686604051602401610ba493929190611831565b604051602081830303815290604052915060e01b6020820180517bffffffffffffffffffffffffffffffffffffffffffffffffffffffff8381831617835250505050610f30565b50505050565b6000610bff82600001610fc7565b9050919050565b60007f01ffc9a7000000000000000000000000000000000000000000000000000000007bffffffffffffffffffffffffffffffffffffffffffffffffffffffff1916827bffffffffffffffffffffffffffffffffffffffffffffffffffffffff1916149050919050565b610c7a82826105f5565b610cbd5780826040517fe2517d3f000000000000000000000000000000000000000000000000000000008152600401610cb4929190611868565b60405180910390fd5b5050565b6000610ccd83836105f5565b610da757600180600085815260200190815260200160002060000160008473ffffffffffffffffffffffffffffffffffffffff1673ffffffffffffffffffffffffffffffffffffffff16815260200190815260200160002060006101000a81548160ff021916908315150217905550610d44610a43565b73ffffffffffffffffffffffffffffffffffffffff168273ffffffffffffffffffffffffffffffffffffffff16847f2f8788117e7eff1d82e926ec794901d17c78024a50270940304540a733656f0d60405160405180910390a460019050610dac565b600090505b92915050565b6000610dda836000018373ffffffffffffffffffffffffffffffffffffffff1660001b610fd8565b905092915050565b6000610dee83836105f5565b15610eca5760006001600085815260200190815260200160002060000160008473ffffffffffffffffffffffffffffffffffffffff1673ffffffffffffffffffffffffffffffffffffffff16815260200190815260200160002060006101000a81548160ff021916908315150217905550610e67610a43565b73ffffffffffffffffffffffffffffffffffffffff168273ffffffffffffffffffffffffffffffffffffffff16847ff6391f5c32d9c69d2a47ea670b442974b53935d1edc7fd64eb21e047a839171b60405160405180910390a460019050610ecf565b600090505b92915050565b6000610efd836000018373ffffffffffffffffffffffffffffffffffffffff1660001b611048565b905092915050565b6000826000018281548110610f1d57610f1c611891565b5b9060005260206000200154905092915050565b6000610f5b828473ffffffffffffffffffffffffffffffffffffffff1661115c90919063ffffffff16565b90506000815114158015610f80575080806020019051810190610f7e9190611804565b155b15610fc257826040517f5274afe7000000000000000000000000000000000000000000000000000000008152600401610fb991906115f4565b60405180910390fd5b505050565b600081600001805490509050919050565b6000610fe48383611172565b61103d578260000182908060018154018082558091505060019003906000526020600020016000909190919091505582600001805490508360010160008481526020019081526020016000208190555060019050611042565b600090505b92915050565b6000808360010160008481526020019081526020016000205490506000811461115057600060018261107a91906118ef565b905060006001866000018054905061109291906118ef565b90508082146111015760008660000182815481106110b3576110b2611891565b5b90600052602060002001549050808760000184815481106110d7576110d6611891565b5b90600052602060002001819055508387600101600083815260200190815260200160002081905550505b8560000180548061111557611114611923565b5b600190038181906000526020600020016000905590558560010160008681526020019081526020016000206000905560019350505050611156565b60009150505b92915050565b606061116a83836000611195565b905092915050565b600080836001016000848152602001908152602001600020541415905092915050565b6060814710156111dc57306040517fcd7860590000000000000000000000000000000000000000000000000000000081526004016111d391906115f4565b60405180910390fd5b6000808573ffffffffffffffffffffffffffffffffffffffff16848660405161120591906119c3565b60006040518083038185875af1925050503d8060008114611242576040519150601f19603f3d011682016040523d82523d6000602084013e611247565b606091505b5091509150611257868383611262565b925050509392505050565b60608261127757611272826112f1565b6112e9565b6000825114801561129f575060008473ffffffffffffffffffffffffffffffffffffffff163b145b156112e157836040517f9996b3150000000000000000000000000000000000000000000000000000000081526004016112d891906115f4565b60405180910390fd5b8190506112ea565b5b9392505050565b6000815111156113045780518082602001fd5b6040517f1425ea4200000000000000000000000000000000000000000000000000000000815260040160405180910390fd5b600080fd5b60007fffffffff0000000000000000000000000000000000000000000000000000000082169050919050565b6113708161133b565b811461137b57600080fd5b50565b60008135905061138d81611367565b92915050565b6000602082840312156113a9576113a8611336565b5b60006113b78482850161137e565b91505092915050565b60008115159050919050565b6113d5816113c0565b82525050565b60006020820190506113f060008301846113cc565b92915050565b600073ffffffffffffffffffffffffffffffffffffffff82169050919050565b6000611421826113f6565b9050919050565b600061143382611416565b9050919050565b61144381611428565b811461144e57600080fd5b50565b6000813590506114608161143a565b92915050565b60006020828403121561147c5761147b611336565b5b600061148a84828501611451565b91505092915050565b6000819050919050565b6114a681611493565b81146114b157600080fd5b50565b6000813590506114c38161149d565b92915050565b6000602082840312156114df576114de611336565b5b60006114ed848285016114b4565b91505092915050565b6114ff81611493565b82525050565b600060208201905061151a60008301846114f6565b92915050565b61152981611416565b811461153457600080fd5b50565b60008135905061154681611520565b92915050565b6000806040838503121561156357611562611336565b5b6000611571858286016114b4565b925050602061158285828601611537565b9150509250929050565b611595816113c0565b81146115a057600080fd5b50565b6000813590506115b28161158c565b92915050565b6000602082840312156115ce576115cd611336565b5b60006115dc848285016115a3565b91505092915050565b6115ee81611416565b82525050565b600060208201905061160960008301846115e5565b92915050565b6000819050919050565b6116228161160f565b811461162d57600080fd5b50565b60008135905061163f81611619565b92915050565b6000806040838503121561165c5761165b611336565b5b600061166a858286016114b4565b925050602061167b85828601611630565b9150509250929050565b60006020828403121561169b5761169a611336565b5b60006116a984828501611630565b91505092915050565b6116bb8161160f565b82525050565b60006020820190506116d660008301846116b2565b92915050565b6000602082840312156116f2576116f1611336565b5b600061170084828501611537565b91505092915050565b600080604083850312156117205761171f611336565b5b600061172e85828601611537565b925050602061173f85828601611630565b9150509250929050565b600082825260208201905092915050565b7f43616c6c6572206973206e6f7420612077697468647261776572000000000000600082015250565b6000611790601a83611749565b915061179b8261175a565b602082019050919050565b600060208201905081810360008301526117bf81611783565b9050919050565b60006040820190506117db60008301856115e5565b6117e860208301846116b2565b9392505050565b6000815190506117fe8161158c565b92915050565b60006020828403121561181a57611819611336565b5b6000611828848285016117ef565b91505092915050565b600060608201905061184660008301866115e5565b61185360208301856115e5565b61186060408301846116b2565b949350505050565b600060408201905061187d60008301856115e5565b61188a60208301846114f6565b9392505050565b7f4e487b7100000000000000000000000000000000000000000000000000000000600052603260045260246000fd5b7f4e487b7100000000000000000000000000000000000000000000000000000000600052601160045260246000fd5b60006118fa8261160f565b91506119058361160f565b925082820390508181111561191d5761191c6118c0565b5b92915050565b7f4e487b7100000000000000000000000000000000000000000000000000000000600052603160045260246000fd5b600081519050919050565b600081905092915050565b60005b8381101561198657808201518184015260208101905061196b565b60008484015250505050565b600061199d82611952565b6119a7818561195d565b93506119b7818560208601611968565b80840191505092915050565b60006119cf8284611992565b91508190509291505056fea26469706673582212204b5b1bae369780cb1612dcd8a510d28ee85bff4fca1cb07ba25c7bd4d14c67ca64736f6c63430008180033",
  "linkReferences": {},
  "deployedLinkReferences": {}
}